1000000000000000103244212                                                                                  2024110120241130331
11                                  00147ASDASF                SETOR CENTRO OE74553380                            000000000000
5020241110653  0000085101P000000000400000000000000000000000000000000000000004000000000000000000N
5020241128653  0000135101P000000000040000000000000000000000000000000000000000400000000000000000N
5020241128653  0000155405P000000000200000000000000000000000000000000000000002000000000000000000N
545454545400000000000000653  0000115101000999              000000000000000000000000000000000020000000000000000000000000000000000000000
545400000000000000653  0000125101000999              000000000000000000000000000000000020000000000000000000000000000000000000000
54545461                            20241110653    00000800000800000000040000000000000000000000000000000000000000000000000000000000 
61                            20241120653    00000900000900000000004440000000000000000000000000000000000000000000000000000000 
61                            20241120653    00001000001000000000004440000000000000000000000000000000000000000000000000000000 
61                            20241121653    00001100001100000000002100000000000000000000000000000000000000000000000002000000 
61                            20241121653    00001200001200000000002100000000000000000000000000000000000000000000000002000000 
61                            20241128653    00001300001300000000004000000000000400000000000000000000000000000000000000000000 
61                            20241128653    00001400001400000000004000000000000000000000000000000000000000000000000000000000 
61                            20241128653    00001500001500000000020000000000000000000000000000000000000000000000000000000000 
61R1120244             0000000010000000000000000400000000000000000000000                                                      
61R112024910           0000000010000000000000000044400000000000000000000                                                      
61R112024910           0000000010000000000000000044400000000000000000000                                                      
61R1120241             0000000010000000000000000001000000000000000000000                                                      
61R1120241             0000000010000000000000000001000000000000000000000                                                      
61R112024912           00000000100000000000000000400000000000000000400000                                                      
61R112024912           0000000010000000000000000040000000000000000000000                                                      
61R112024914           0000000010000000000000000200000000000000000000000                                                      
7520241101202411304             44071400NOTA FISCAL EMITIDA EM AMBIENTE DE HOMOLOGACAO - SEM UN    000000000000000000000000000
752024110120241130910           44071400NOTA FISCAL EMITIDA EM AMBIENTE DE HOMOLOGACAO - SEM UN    000000000000000000000000000
7520241101202411301             44071400NOTA FISCAL EMITIDA EM AMBIENTE DE HOMOLOGACAO - SEM UN    000000000000000000000000000
752024110120241130912           44071400NOTA FISCAL EMITIDA EM AMBIENTE DE HOMOLOGACAO - SEM UN    0000000000000000000000000000
752024110120241130914           44071400NOTA FISCAL EMITIDA EM AMBIENTE DE HOMOLOGACAO - SEM UN    000000000000000000000000000
9000000000000000              500000000354000000106100000016700000000075000000059900000037                                   1